:100000000C9461000C947E000C947E000C947E0095
:100010000C947E000C947E000C947E000C947E0068
:100020000C947E000C947E000C947E000C947E0058
:100030000C947E000C947E000C947E000C947E0048
:100040000C9461010C947E000C947E000C947E0054
:100050000C947E000C947E000C947E000C947E0028
:100060000C947E000C947E0000000000230026000B
:10007000290000000008000201000003040700003E
:1000800000000000000000000000250028002B00F8
:1000900000000000240027002A00040404040404D3
:1000A0000404020202020202030303030303010227
:1000B00004081020408001020408102001020408F6
:1000C000102011241FBECFEFD8E0DEBFCDBF11E05E
:1000D000A0E0B1E0E2E9F6E002C005900D92AA319D
:1000E000B107D9F721E0AAE1B1E001C01D92AC321D
:1000F000B207E1F70E94AB010C9447030C94000097
:10010000833081F028F4813099F08230A1F0089595
:100110008730A9F08830B9F08430D1F48091800024
:100120008F7D03C0809180008F7780938000089539
:1001300084B58F7702C084B58F7D84BD089580918A
:10014000B0008F7703C08091B0008F7D8093B000A6
:100150000895CF93DF93282F30E0F901EE58FF4F39
:100160008491F901E255FF4FD491F901E656FF4F12
:10017000C491CC2391F081110E948000EC2FF0E01B
:10018000EE0FFF1FE859FF4FA591B491EC91ED23BD
:1001900081E090E021F480E002C080E090E0DF9117
:1001A000CF9108951F93CF93DF93282F30E0F9016B
:1001B000EE58FF4F8491F901E255FF4FD491F901B8
:1001C000E656FF4FC491CC23C9F0162F81110E942F
:1001D0008000EC2FF0E0EE0FFF1FEA57FF4FA591D4
:1001E000B4918FB7F894111105C09C91ED2FE09553
:1001F000E92302C0EC91ED2BEC938FBFDF91CF91FF
:100200001F9108953FB7F89480911F0190912001AC
:10021000A0912101B091220126B5A89B05C02F3FD6
:1002200019F00196A11DB11D3FBFBA2FA92F982F1C
:100230008827820F911DA11DB11DBC01CD0142E097
:10024000660F771F881F991F4A95D1F708958F92DF
:100250009F92AF92BF92CF92DF92EF92FF926B018B
:100260007C010E9402014B015C01C114D104E10434
:10027000F104F1F00E940201DC01CB018819990917
:10028000AA09BB09883E9340A105B10570F321E09E
:10029000C21AD108E108F10888EE880E83E0981EA2
:1002A000A11CB11CC114D104E104F10419F7DDCF84
:1002B000FF90EF90DF90CF90BF90AF909F908F9086
:1002C00008951F920F920FB60F9211242F933F9310
:1002D0008F939F93AF93BF9380911B0190911C01CB
:1002E000A0911D01B0911E0130911A0123E0230F4E
:1002F0002D3720F40196A11DB11D05C026E8230F5E
:100300000296A11DB11D20931A0180931B019093A9
:100310001C01A0931D01B0931E0180911F019091BB
:100320002001A0912101B09122010196A11DB11DD2
:1003300080931F0190932001A0932101B09322018B
:10034000BF91AF919F918F913F912F910F900FBED1
:100350000F901F901895789484B5826084BD84B501
:10036000816084BD85B5826085BD85B5816085BDB0
:1003700080916E00816080936E0010928100809168
:1003800081008260809381008091810081608093F0
:100390008100809180008160809380008091B10015
:1003A00084608093B1008091B00081608093B00040
:1003B00080917A00846080937A0080917A008260D4
:1003C00080937A0080917A00816080937A00809196
:1003D0007A00806880937A001092C100A6E0B1E0B4
:1003E0008D919D919927FC01E255FF4F2491FC01CD
:1003F000E656FF4F8491882399F090E0880F991F6B
:10040000FC01E057FF4FC591D491FC01EA57FF4F23
:10041000859194918FB7F894E881E22BE8838FBFA0
:1004200081E0AA31B807E1F6A0E0B1E08D919D919D
:100430009927FC01E255FF4F2491FC01E656FF4F3E
:1004400084918823C9F090E0880F991FFC01E05740
:10045000FF4F45915491FC01EA57FF4FC591D4914C
:100460009FB7F894FA018081209582238083888148
:10047000E22FE823E8839FBFF1E0A630BF07B1F683
:1004800000E010E0C6E0D1E08881229660E00E94A2
:10049000D20081E0CA31D807B9F781E00E94A900F3
:1004A000D1E0892B09F4D0E0D0932B0182E00E94A7
:1004B000A900C1E0892B09F4C0E0C0932A0183E0C0
:1004C0000E94A90021E0892B09F420E02093290152
:1004D000DD2309F442C0C0912301D0912401C13031
:1004E000D10581F0C230D105C1F0209711F561E04E
:1004F00087E00E94D20061E08DE00E94D20061E0BE
:1005000089E015C061E086E00E94D20061E08CE0E5
:100510000E94D20061E08AE00AC061E085E00E94AA
:10052000D20061E084E00E94D20061E08BE00E9492
:10053000D20068EC70E080E090E00E9427012196F4
:10054000C330D1052CF4D0932401C093230198C06B
:10055000109224011092230193C0CC2319F1C6E01C
:10056000D1E08881229661E00E94D200E1E0CA31A8
:10057000DE07B9F76AEF70E080E090E00E942701A3
:10058000C6E0D1E08881229660E00E94D200F1E0CE
:10059000CA31DF07B9F768EC70E080E090E00E94B4
:1005A00027016EC0222309F442C0C0912501D091D9
:1005B0002601C130D10581F0C230D105C1F02097AC
:1005C00011F561E085E00E94D20061E08CE00E94BC
:1005D000D20061E08BE015C061E086E00E94D200AD
:1005E00061E08DE00E94D20061E08AE00AC061E033
:1005F00087E00E94D20061E088E00E94D20061E0C2
:1006000089E00E94D20068EC70E080E090E00E94F7
:1006100027012196C330D1052CF4D0932601C09335
:1006200025012EC0109226011092250129C0C091EB
:100630002701D0912801FE01EE0FFF1FEA5FFE4F58
:1006400061E080810E94D200FE01EE0FFF1FE25F99
:10065000FE4F61E080810E94D2006AEF70E080E08E
:1006600090E00E9427012196C430D1052CF4D0934C
:100670002801C093270104C010922801109227017D
:100680000115110509F4FECE0E940000FBCEF8947E
:02069000FFCF9A
:100692000100020003000400050006000700080034
:0A06A20009000A000B000C000D0017
:107E0000112484B714BE81FFF0D085E080938100F7
:107E100082E08093C00088E18093C10086E0809377
:107E2000C20080E18093C4008EE0C9D0259A86E02C
:107E300020E33CEF91E0309385002093840096BBD3
:107E4000B09BFECF1D9AA8958150A9F7CC24DD24C4
:107E500088248394B5E0AB2EA1E19A2EF3E0BF2EE7
:107E6000A2D0813461F49FD0082FAFD0023811F036
:107E7000013811F484E001C083E08DD089C08234E0
:107E800011F484E103C0853419F485E0A6D080C0E4
:107E9000853579F488D0E82EFF2485D0082F10E0AE
:107EA000102F00270E291F29000F111F8ED06801E7
:107EB0006FC0863521F484E090D080E0DECF843638
:107EC00009F040C070D06FD0082F6DD080E0C81688
:107ED00080E7D80618F4F601B7BEE895C0E0D1E017
:107EE00062D089930C17E1F7F0E0CF16F0E7DF06D8
:107EF00018F0F601B7BEE89568D007B600FCFDCFD4
:107F0000A601A0E0B1E02C9130E011968C91119780
:107F100090E0982F8827822B932B1296FA010C0160
:107F200087BEE89511244E5F5F4FF1E0A038BF0790
:107F300051F7F601A7BEE89507B600FCFDCF97BE46
:107F4000E89526C08437B1F42ED02DD0F82E2BD052
:107F50003CD0F601EF2C8F010F5F1F4F84911BD097
:107F6000EA94F801C1F70894C11CD11CFA94CF0C13
:107F7000D11C0EC0853739F428D08EE10CD085E9AC
:107F80000AD08FE07ACF813511F488E018D01DD067
:107F900080E101D065CF982F8091C00085FFFCCF94
:107FA0009093C60008958091C00087FFFCCF809118
:107FB000C00084FD01C0A8958091C6000895E0E648
:107FC000F0E098E1908380830895EDDF803219F02E
:107FD00088E0F5DFFFCF84E1DECF1F93182FE3DFCA
:107FE0001150E9F7F2DF1F91089580E0E8DFEE27F6
:047FF000FF270994CA
:027FFE00040479
:0400000300007E007B
:00000001FF
